:100000000808002019160000AF0800003F1100008A
:1000100000000000000000000000000000000000E0
:100020000000000000000000000000008F11000030
:100030000000000000000000CB110000B31600001B
:10004000BF160000E91600000D130000EB160000BB
:10005000ED16000000000000EF16000099010000FE
:10006000F1160000F3160000F5160000F716000068
:10007000F9160000FB160000FD160000FF16000038
:100080000117000003170000051700000717000004
:10009000091700000B1700000D1700000F170000D4
:1000A00011170000131700000000000000000000FE
:1000B0000000000000000000000000000000000040
:1000C0000121C006C00E81405A4801607047F0B55A
:1000D00040B2002821D5584B40B20207120F083A0F
:1000E000920804246243544C40B205072D0F083D8A
:1000F000AD08042675436459FF258607B60F082707
:100100007E43B540AC438901C9B28007800F082502
:1001100068438140214399501AE0C64A40B283089F
:1001200004246343D258FF238407A40F08256C439B
:10013000A3409A438901C9B283079B0F08246343F4
:1001400099401143BB4A40B28008042358431150E0
:10015000F0BD00B5C0B20102B74A1268B74B1340F8
:100160000B43B5490B60C0B2002803D00120B4494D
:10017000086002E00020B249086000BDB148006894
:100180007047B149086070470120B0490860704766
:100190000020AF490860704780B5FFF7F9FFAD4810
:1001A0000078002803D0AC480078002827D1FFF75A
:1001B000E5FF00F063FB00F07BFB0022A74B00F0A3
:1001C00090FB00F062FCA649A64A126804235A4339
:1001D0008850A4480068401CA2490860A1480068F3
:1001E000402802D301209B4908709E48006880285F
:1001F00005D301209849087000209A490860FFF74C
:10020000C3FF01BD00B583B0974803C86A4603C267
:10021000083A684600F07FFC0120FFF79AFF0120B2
:10022000FFF7AFFF01210720FFF751FF0720FFF77E
:1002300047FF07BD00E100E01CED00E0FFB58DB019
:100240000F9840100B900F9806900120059005E044
:100250000698401006900598401C05901098059946
:10026000884200DAA3E081481099059A891A04228D
:10027000514340580A907E481099059A891A0422E1
:10028000514340580990069840100290FE20800586
:10029000049000200390002483E002982818019025
:1002A0000D980421694341580D98019A04235A433B
:1002B000805800F063FC08900E980421694341586F
:1002C0000E98019A04235A43805800F057FC079077
:1002D0000D980421694340580D99019A04235A430B
:1002E000895800F083FC06000E98042169434058A9
:1002F0000E99019A04235A43895800F077FC0700AD
:100300000498310000F0CAFC00900398390000F016
:10031000C5FC0100009800F069FC0D99019A0423C6
:100320005A4388500498390000F0B8FC01000F00CF
:100330000398310000F0B2FC390000F01FFC0E9968
:10034000019A04235A43885008980D9904226A435D
:10035000885007980E9904226A43885006982D18F1
:100360000F98854299DB049E04990A9800F096FC48
:1003700005000399099800F091FC0100280000F0A5
:1003800035FC049003990A9800F088FC01000D00E8
:100390000998310000F082FC290000F0EFFB039087
:1003A000641C0298844200DB52E72500D8E701254F
:1003B0002C0005E0241A4010A042FBDB24186D1C21
:1003C0000F98854233DAA5422FDA681E0190601E2D
:1003D00002900D98029904225143405808900E98BB
:1003E000029904225143405807900D980199042224
:1003F000514340580D99029A04235A4388500E984D
:1004000001990422514340580E99029A04235A43F9
:10041000885008980D99019A04235A4388500798E8
:100420000E99019A04235A4388500B98C4E701207F
:1004300011B0F0BD00E400E004750040FF00FFFFD4
:1004400000750040087500400473004000700040D3
:10045000007100404615002047150020008065C04F
:100460000808002020150020D8160000781500008C
:10047000B015000070B502000B00106800250124C3
:100480000CE0A4B204216143515800F05FFC04D297
:10049000A4B20420604310582500641C21001E00F3
:1004A00089B2B6B2B142ECD3280080B270BD000070
:1004B000F8B5FFF7A7FEFFF767FE02E00020D2497C
:1004C000087040BF20BF20BFCF480078002803D16C
:1004D000CE4800780028F4D0CB480078002801D01E
:1004E000002500E00125002006E00021C84A80B276
:1004F00004234343D150401C80B24028F5DB06233F
:100500004022C349C348EDB2802464006C43001903
:10051000FFF794FE002439E0BE48EDB28021490087
:1005200069434618A4B2042161430091B948EDB271
:100530008021490069434018A4B204216143405816
:10054000B449EDB2802252006A438918A4B2042251
:100550006243895800F0A2FB01000F00AC48A4B22E
:10056000042161434158AA48A4B20422624380583E
:1005700000F094FB390000F001FB00F099F900F065
:10058000F8FB00F082FA00997050641CA4B2202C91
:10059000C2DB20219F48EDB2802252006A438018BE
:1005A000FFF768FF9C4908809B4801889B484843A7
:1005B000402100F053FC022100F050FC98490880D3
:1005C0009448EDB280214900694340189249098856
:1005D00004224A43805893490860002092490860E9
:1005E000002410E0904800688A49EDB28022520051
:1005F0006A438918A4B204226243895800F0BEFA03
:1006000089490860641CA4B2202CEBDB8648006892
:100610008449096800F0EAFA844900F079FC8249CB
:10062000086081480068824900F090FB03D20020F6
:10063000804908800FE07B4800687B49096800F02A
:1006400067FC00F035F900227B4B00F0B6FC00F0AF
:1006500077FD78490880724800887849784A12887E
:1006600002235343C8526F48006800F091FD75495A
:10067000734A128802235343C8526B48006800F043
:1006800087FD71496E4A128802235343C852694854
:1006900000886E496A4A128802235343C85262484E
:1006A00000686B4900F052FB07D201206949644A97
:1006B000128802235343C85206E000206549604A6D
:1006C000128802235343C8525D480088401C5C498D
:1006D00008805B480088FF2802DD00205849088018
:1006E00000205D4908805C480021405E5B4908604D
:1006F0005B4908605B4908605B490860002032E0A4
:10070000594909684D4A80B202234343D25A891895
:10071000554A1160534909684A4A80B2022343434B
:10072000D25A89184F4A11604D490968464A80B229
:1007300002234343D25A8918494A1160474909683C
:10074000424A80B202234343D25A8918434A116075
:10075000414909883F4A80B202234343D25A89184B
:100760003D4A1180401C80B2FF28C9DD3E48006828
:1007700000123D4908603B48006800123949086092
:100780003748006800123649086034480068001293
:1007900032490860314800681A2819DB304800687F
:1007A000052815DB304800683049401A3049884236
:1007B0000ED229480021405E102809DB2D48007820
:1007C000C8280EDA2B480078401C2A49087008E037
:1007D00028480078002804D026480078401E254983
:1007E000087024480078652803DB0120224908703E
:1007F00002E0002020490870EDB2002D00D15DE636
:100800000020024908705CE64615002047150020CC
:1008100008140020080800203C15002050C30000E8
:100820003E15002024150020281500200000F84166
:10083000CDCCCC3D4015002000002440080A00200B
:1008400042150020080C0020080E0020081000208F
:100850000000A04008120020441500203815002098
:1008600034150020301500202C150020BD0200009A
:10087000E30C000048150020491500209D210200CE
:1008800008D5F446524200F005F80122D207104381
:10089000604700000AD002D4491E9218FCD5C90551
:1008A000100A1206524100D3012A48417047FEE760
:1008B000012212060118CA420AD28A420DD83822F1
:1008C000120609098918C20FD20711434007704761
:1008D00000D049080909014301E0C10FC907002000
:1008E0007047F0B40125ED070F005F404FD48B42F5
:1008F00000D1824205D98446100062468C46190018
:100900006346DF184C18640D7F0D3AD0661C7605DF
:1009100037D0E61B352E34DCDB022B43DB0A0C0D13
:10092000C9022943C912202E0DDB1700203E06D034
:100930001F00F741F3405F400026012A7741C018AD
:1009400071410DD217E01700F741F2405740F341D3
:100950005A40B340F3405A400026801859410AD308
:10096000A21C52050FD0C207012F72411700400888
:10097000CB0718434908641C24054208AF41704165
:100980006141F0BC7047641C21050020F9E76B4011
:100990000AE06B40ABE7F742F3D1E943F1E72442C9
:1009A000EFD100200021ECE70C00871A9C4105D212
:1009B000C01BA141D219634169406B40AE0ADF18E8
:1009C0004C18F442E7D2640D7F0DE8D0E61B362EBA
:1009D000D7DCDB022B43DB0AA4460C0DC9022943FA
:1009E000C90A012E28DC04D1D6075208DF073A4392
:1009F0005B08EF0A76429041994114D039423BD1CD
:100A0000B61940414941761C394204D1761C001880
:100A100049413942FAD0B9436746B74208D9A41BC5
:100A200024052143ADE70042EAD13642E8D1A8E7E8
:100A3000E40AE1070020A4E7202E0BDD203E1F0082
:100A4000F340F7415F40012A002257417E4298411E
:100A500091410BE01700F741F2405740F3415A40F3
:100A6000B340F3405A407E42904199410A0303D279
:100A7000641EB619404149410027641E24054208FE
:100A8000AE4178416141F0BC7047012252054B18DC
:100A9000DA4201D9581570475B0D0722D2019B1A23
:100AA00010D9FF2B1DD2DB050122D2070A401343C8
:100AB0000903020D1143490AC200524100D9491CE1
:100AC000C81870470AD1800A0A0302435212921CC6
:100AD00004D9D3070B40D00518437047C80FC0078F
:100AE0007047C80F0002FF30C005704700B5C0B2A4
:100AF00001021F4A12681F4B13400B431C490B6035
:100B0000C0B2002803D001201B49086002E0002089
:100B10001949086000BD10B50024220001788C0737
:100B2000A40F14432200417889001C240C40144374
:100B300022004168490160240C4014434168C022EE
:100B400092020A40002A05D021004068C024A40275
:100B500004400C430020FFF7C9FF05480068FF214F
:100B60000902014021430248016010BD000000005D
:100B700004750040FF00FFFF007500400122D2070E
:100B800003004B402ED4431A01D2C01AC91830B406
:100B90004B180418240E1B0E22D0FF2C20D0E31A71
:100BA000182B1DDC09021143C40D641E0002104302
:100BB00094461925ED1A0A00AA40D940451801D3D8
:100BC0006D08A41CE405D209280A2D062A436546AF
:100BD000AA41604103181B0EFF2B01D3C00DC005B5
:100BE00030BC7047514006E05140CCE70122D207AB
:100BF00003004B40F8D4431A03D2C01AC91850401E
:100C0000514030B44B18090211430418240E1B0E36
:100C100040D0FF2C3AD025009D410BD31ED8C50DE6
:100C20004002401A0BD3ED050100400AC90591416D
:100C30006841D5E7C50D40024918401AD0D00121BE
:100C40004008491C0018FCD58C4204D36D1A000AD8
:100C5000ED054019C4E7E8051040C1E7182DBFDCD9
:100C6000AC1C0D00E140E5414D40012D4941C40D52
:100C700000021043451A01D46D199543641EE40522
:100C8000280A2D069541604130BC7047FF2BA7D143
:100C9000D843A5E72442A3D10020A1E730B4050042
:100CA0004D400122D20715404B180418240E2ED0B7
:100CB0001B0E32D0FF2C34D0FF2B3AD0E4180002A8
:100CC000090210431143000A090A9446C2B24A437A
:100CD000000AC3B24B43000A4843110A5B181A4387
:100CE000D2B2190A091801D44918641E080A7F3CB7
:100CF00023DBFE2C08DAE40509061143634699411B
:100D00006041284330BC7047FF20C005F9E7280048
:100D10001B0EFF2BF6D1D043F4E72800FF2CF1D1B6
:100D2000F9E74002F7D1FF2B01D14902F3D1E005E9
:100D3000E7E7D8054902E4D0EDE743020020641C50
:100D4000DFD15B129B1CDCD9D805DAE70CB4012299
:100D500012060318DA4207D84B18DA4204D8020008
:100D60000A43921802D288420CBC7047FCD08142E0
:100D7000FAE7012252054B1850D2D3424DD25B0DF7
:100D80004BD030B41C05A14355082943D40AE41EB6
:100D90001B195B0801D3001849411B059C466C19BF
:100DA000091B0018494100184941641900239202A7
:100DB000491B07D46D081DD2091B6419001849414D
:100DC000491BF7D56D080AD20919641B001849415F
:100DD000491BEFD56D08F7D301E0520817D0C018B2
:100DE00061419B1AAC4100184941801AA941F4D4D1
:100DF00052080AD0C01AA1419B186C410018494101
:100E0000801AA941E9D45208F4D15B1C6C415808FE
:100E1000E20710436108614430BC70470020590D5F
:100E2000FBD0C943D342F8D802B500F0CFF902BDD8
:100E3000F446002804D4494200F013F840426047C9
:100E40004042002905D45FD000F00BF840424942EF
:100E50006047494200F005F84942604703460B43AA
:100E6000E6D40022030A8B420BD203098B4219D22B
:100E700043088B422ED2411A00D2014652411046FD
:100E80007047FF2209023FD012068B4205D312128F
:100E900009028B4201D31212090203098B4219D3B2
:100EA00000E0090AC3098B4201D3CB01C01A5241A9
:100EB00083098B4201D38B01C01A524143098B42F3
:100EC00001D34B01C01A524103098B4201D30B01DC
:100ED000C01A5241C3088B4201D3CB00C01A524101
:100EE00083088B4201D38B00C01A524143088B42C6
:100EF00001D34B00C01A5241884200D3401A5241DC
:100F0000CFD201461046704708B5C046C04608BD5E
:100F100030B405004D400122D20715404B1804188B
:100F2000240E28D01B0E2FD0FF2C34D0FF2B37D00F
:100F3000E41A000209021043114343084808D10D86
:100F40001B1A02D2641EDB181B18DB18834200D365
:100F50001B1A4941F9D37F3426DDFE2C08DAE4055B
:100F60004808C907194391416041284330BC704784
:100F7000FF20C005F9E728001B0E03D0FF2BF5D199
:100F80004902F3D0D043F1E7FF2C01D14002F9D15F
:100F9000FF20C005E9E74002F4D1FF2BF8D1F1E7CB
:100FA00028004902E2D0EDE70B0200202442DCD108
:100FB0005B129B1CD9D9D805D7E7F0B50E005E406F
:100FC0000125ED072E40B446AE0ADF184C18F44256
:100FD00008D2F7420ED2640D01D07F0D12D100204D
:100FE0006146F0BD05D1F74201D87F0D05D1002043
:100FF000C143F0BDFBD1640DF9D00020C1434905C8
:1010000049088FE0E419C902DB0229432B43DB0ABC
:10101000460DC00231438E4630B487B295B27D434F
:101020002E0CADB2140C7C43A419260C24042543C9
:101030009CB27C43A419190C7943270CC919A4B29A
:101040000F043C43090C000C97B247432E0CBE1909
:101050003543ADB2170C4743360CBF19A6B2BF19C2
:101060003E043543240C3E0C36199FB24743BF194A
:10107000BCB23E0C89191F0C47437F183E04344311
:10108000390C704680B297B247432E0CBE193543D7
:10109000ADB2170C4743360CBF19A6B2BF193E04B8
:1010A0003543240C3E0C36199FB24743BF19BCB2DE
:1010B0003E0C89191F0C47437F183E043443390CFA
:1010C00077463F0C90B278432E0C80190604ADB2DF
:1010D0002E43050CA0B22D18120C7A435019020CA5
:1010E00080B2240CA4189AB27A4312191404204333
:1010F000120C89181B0C7B43C91830BCEF0A39420B
:1011000003D1B61940414941641E6F12BF0DE41B63
:101110000BDBFF19BC4211DA240500274208AE415F
:101120007841614166463143F0BD641C05D1401CE5
:101130006141CF0201D34908F4E750E75DE7FEE7DC
:10114000F4464A1805D200F00DF801D58017400882
:10115000604700F007F80121C907884200D908005C
:1011600040426047400DC90208430121C9070843B6
:10117000520D40210901521A521C06D452421F320C
:1011800001D4D0407047C017704700207047FEE779
:101190000122D2070118090E7F3910D449421F31AC
:1011A0000FD4001805D2C0011043C84000D5D04369
:1011B0007047C0011043C84005D44042704700202A
:1011C00070470042F3D510007047FEE71FB500F0EE
:1011D00003F8212101601FBD80B50248C046C0460A
:1011E00002BD000004000020002209B242507047F6
:1011F00000B509B24058002801D0012000E00020CD
:10120000C0B200BD00B5C122920080580140002943
:1012100001D0012000E00020C0B200BDC222920037
:101220008150704701009020C00008589022D200E1
:1012300088507047A321C9004058C0B27047C9B256
:10124000184A815070470122C9B24250704780B598
:101250008E2149002C48FFF7C7FF2948806828499C
:10126000098A415C2648008A401C254A1082C9B27E
:101270002548FFF7E4FF01BD10B5842149000A4865
:10128000FFF7B2FF1F48047D0748FFF7D3FF1D4952
:10129000C968E4B208551B48007D401C194908750F
:1012A00010BD00001C0500000020004000B585B006
:1012B00001216A461170694608721148C0680190A0
:1012C00000200F49C8740E48016868460C4A5268ED
:1012D000904705B000BD00B585B000216A46117089
:1012E00069460872074880680190002005498874A3
:1012F000044801686846034A5268904705B000BD3B
:1013000008150020081500200020004000B585B019
:10131000802189004B48FFF775FF002830D09221CB
:1013200049004848FFF764FF002829D0922149006E
:101330004448FFF759FF812189004248FFF76EFFBB
:101340004148407D002803D104213E48FFF77BFF40
:101350000220694608703B48FFF764FF03903A4853
:10136000C07C694608723848C06801900020364940
:10137000C874354801686846334A5268904725E08A
:1013800004213048FFF73EFF00281FD08421490088
:101390002C48FFF72DFF002818D0FFF76DFF2A48D3
:1013A000C07C2949097D884210D12748407D00280A
:1013B00003D104212348FFF746FF812189002148FA
:1013C000FFF72CFF2048007DFFF770FF8E214900BA
:1013D0001C48FFF70DFF002816D01B48008A1A4949
:1013E000897C89B2884202D2FFF731FF0CE08E215E
:1013F00049001448FFF7F8FE1348807C002803D00A
:101400001148807CFFF767FFA22149000D48FFF7D4
:10141000EFFE002814D0A22149000A48FFF7E4FE9D
:101420000948407D002803D000210648FFF70BFF44
:101430000548C07C002803D00348007DFFF736FF35
:1014400005B000BD002000400815002080B500F068
:1014500011F8002806D03148314908608020000288
:101460003049086000F03EF8002802D001202E49E3
:10147000086001BD00B52D480078C0B201282FD109
:101480002B4800780007000F002829D12948007850
:10149000F0210140002907D127480078F0210140C0
:1014A000002901D101201CE022480078F0210140F0
:1014B000102907D120480078F0210140002901D1EE
:1014C00001200EE01B480078F0210140302907D1AF
:1014D00019480078F0210140002901D1012000E0E5
:1014E000002000BD00B511480078C0B2012813D11A
:1014F0000F4800780007000F00280DD10D48007834
:10150000F0210140402907D10B480078F02101402B
:10151000002901D1012000E0002000BDDFFF07C04D
:1015200004050040186C004008060040E00F00F081
:10153000E40F00F0E80F00F0EC0F00F070B40121B0
:10154000002213E00468001D0C4202D04D466D1EBF
:1015500064192260241D1B1F042BFAD225009E074C
:1015600001D52280AD1C0B4000D02A700368001DFD
:10157000002BE7D170BC7047000080BF0000000066
:10158000F304353F5E836C3FBE147B3F6DC47E3FEA
:101590000FB17F3F43EC7F3F11FB7F3FC4FE7F3F96
:1015A000B1FF7F3FECFF7F3FFBFF7F3FFFFF7F3FB0
:1015B00000000000000080BFF30435BF15EFC3BE7C
:1015C000C2C547BE36BDC8BD30FB48BDB00AC9BCA8
:1015D000900E49BC880FC9BBC60F49BBD50FC9BA0D
:1015E000D90F49BADA0FC9B930B401210268001D18
:1015F000002A0FD00368C318446808300C4202D098
:101600004D466D1E64191D6825601B1D241D121F8B
:10161000ECD0F8E730BC70470321064802680A4363
:101620000260054802680A43026004488047044893
:101630000047000024050040540500404D14000000
:10164000CD16000010B5074979441831064C7C448A
:10165000163404E0081D0A68891888470100A14271
:10166000F8D110BD0800000028000000D1FEFFFFE7
:10167000440D000008080020000000006DFFFFFF7F
:10168000080000005C0000000000002000000000D6
:101690000120C046002801D0FFF7D4FF002000BF82
:1016A00000BFFEF705FF00F000F880B500F002F87B
:1016B00001BDFEE70746384600F002F8FBE7FEE70B
:1016C0002021090326311820ABBEF9E700BF00BF77
:1016D00000BF00BFFFF7DCFF0001000002000000B8
:1016E0000024F40000000000FEE7FEE7FEE7FEE74E
:1016F000FEE7FEE7FEE7FEE7FEE7FEE7FEE7FEE7C2
:10170000FEE7FEE7FEE7FEE7FEE7FEE7FEE7FEE7B1
:04171000FEE7FEE70B
:04000005000016CD14
:00000001FF
